{
  "contractName": "Tickets",
  "abi": [
    {
      "inputs": [
        {
          "internalType": "uint256",
          "name": "",
          "type": "uint256"
        }
      ],
      "name": "matches",
      "outputs": [
        {
          "internalType": "uint256",
          "name": "matchNo",
          "type": "uint256"
        },
        {
          "internalType": "string",
          "name": "team1",
          "type": "string"
        },
        {
          "internalType": "string",
          "name": "team2",
          "type": "string"
        },
        {
          "internalType": "string",
          "name": "stadium",
          "type": "string"
        }
      ],
      "stateMutability": "view",
      "type": "function",
      "constant": true
    },
    {
      "inputs": [
        {
          "internalType": "uint256",
          "name": "_matchno",
          "type": "uint256"
        },
        {
          "internalType": "string",
          "name": "_team1",
          "type": "string"
        },
        {
          "internalType": "string",
          "name": "_stadium",
          "type": "string"
        },
        {
          "internalType": "string",
          "name": "_team2",
          "type": "string"
        }
      ],
      "name": "setMatch",
      "outputs": [],
      "stateMutability": "nonpayable",
      "type": "function"
    },
    {
      "inputs": [
        {
          "internalType": "uint256",
          "name": "_matchno",
          "type": "uint256"
        },
        {
          "internalType": "uint256",
          "name": "_standNo",
          "type": "uint256"
        },
        {
          "internalType": "uint256",
          "name": "_noOfTickets",
          "type": "uint256"
        },
        {
          "internalType": "uint256",
          "name": "_price",
          "type": "uint256"
        }
      ],
      "name": "setStand",
      "outputs": [],
      "stateMutability": "nonpayable",
      "type": "function"
    },
    {
      "inputs": [
        {
          "internalType": "uint256",
          "name": "_matchno",
          "type": "uint256"
        },
        {
          "internalType": "uint256",
          "name": "_stand",
          "type": "uint256"
        }
      ],
      "name": "getPrice",
      "outputs": [
        {
          "internalType": "uint256",
          "name": "m",
          "type": "uint256"
        }
      ],
      "stateMutability": "view",
      "type": "function",
      "constant": true
    },
    {
      "inputs": [
        {
          "internalType": "uint256",
          "name": "_matchno",
          "type": "uint256"
        },
        {
          "internalType": "uint256",
          "name": "_stand",
          "type": "uint256"
        }
      ],
      "name": "buyTicket",
      "outputs": [
        {
          "internalType": "uint256",
          "name": "",
          "type": "uint256"
        }
      ],
      "stateMutability": "payable",
      "type": "function",
      "payable": true
    },
    {
      "inputs": [
        {
          "internalType": "uint256",
          "name": "_matchno",
          "type": "uint256"
        },
        {
          "internalType": "uint256",
          "name": "_stand",
          "type": "uint256"
        }
      ],
      "name": "getFilledCount",
      "outputs": [
        {
          "internalType": "uint256",
          "name": "m",
          "type": "uint256"
        }
      ],
      "stateMutability": "view",
      "type": "function",
      "constant": true
    },
    {
      "inputs": [
        {
          "internalType": "uint256",
          "name": "_matchno",
          "type": "uint256"
        },
        {
          "internalType": "uint256",
          "name": "_stand",
          "type": "uint256"
        }
      ],
      "name": "getTotalTickets",
      "outputs": [
        {
          "internalType": "uint256",
          "name": "m",
          "type": "uint256"
        }
      ],
      "stateMutability": "view",
      "type": "function",
      "constant": true
    },
    {
      "inputs": [
        {
          "internalType": "uint256",
          "name": "_matchno",
          "type": "uint256"
        }
      ],
      "name": "getMatch",
      "outputs": [
        {
          "components": [
            {
              "internalType": "uint256",
              "name": "matchNo",
              "type": "uint256"
            },
            {
              "internalType": "string",
              "name": "team1",
              "type": "string"
            },
            {
              "internalType": "string",
              "name": "team2",
              "type": "string"
            },
            {
              "internalType": "string",
              "name": "stadium",
              "type": "string"
            },
            {
              "components": [
                {
                  "internalType": "uint256",
                  "name": "noOfTickets",
                  "type": "uint256"
                },
                {
                  "internalType": "uint256",
                  "name": "filledCount",
                  "type": "uint256"
                },
                {
                  "internalType": "uint256",
                  "name": "price",
                  "type": "uint256"
                },
                {
                  "components": [
                    {
                      "internalType": "address",
                      "name": "ticketOwner",
                      "type": "address"
                    }
                  ],
                  "internalType": "struct Tickets.Ticket[100]",
                  "name": "tickets",
                  "type": "tuple[100]"
                }
              ],
              "internalType": "struct Tickets.Stand[10]",
              "name": "stands",
              "type": "tuple[10]"
            }
          ],
          "internalType": "struct Tickets.Match",
          "name": "m",
          "type": "tuple"
        }
      ],
      "stateMutability": "view",
      "type": "function",
      "constant": true
    }
  ],
  "bytecode": "0x608060405234801561001057600080fd5b5061155e806100206000396000f3fe60806040526004361061007b5760003560e01c8063ae167e501161004e578063ae167e501461016a578063c43445ea14610193578063d2da9d61146101d0578063d49351b91461020d5761007b565b8063298ec208146100805780633d092b3d146100b05780634768d4ef146100ed5780635cf4ee911461012d575b600080fd5b61009a60048036038101906100959190610cdb565b610236565b6040516100a79190610d2a565b60405180910390f35b3480156100bc57600080fd5b506100d760048036038101906100d29190610d45565b610410565b6040516100e4919061108b565b60405180910390f35b3480156100f957600080fd5b50610114600480360381019061010f9190610d45565b61070c565b60405161012494939291906110f7565b60405180910390f35b34801561013957600080fd5b50610154600480360381019061014f9190610cdb565b6108db565b6040516101619190610d2a565b60405180910390f35b34801561017657600080fd5b50610191600480360381019061018c9190611286565b61091a565b005b34801561019f57600080fd5b506101ba60048036038101906101b59190610cdb565b6109d4565b6040516101c79190610d2a565b60405180910390f35b3480156101dc57600080fd5b506101f760048036038101906101f29190610cdb565b610a13565b6040516102049190610d2a565b60405180910390f35b34801561021957600080fd5b50610234600480360381019061022f9190611341565b610a52565b005b600080600084600a811061024d5761024c6113a8565b5b61040a020160040183600a8110610267576102666113a8565b5b60670201600101549050600084600a8110610285576102846113a8565b5b61040a020160040183600a811061029f5761029e6113a8565b5b606702016000015481036102b257600080fd5b600084600a81106102c6576102c56113a8565b5b61040a020160040183600a81106102e0576102df6113a8565b5b606702016002015434101561032a576040517f08c379a000000000000000000000000000000000000000000000000000000000815260040161032190611423565b60405180910390fd5b33600085600a811061033f5761033e6113a8565b5b61040a020160040184600a8110610359576103586113a8565b5b606702016003018260648110610372576103716113a8565b5b0160000160006101000a81548173ffffffffffffffffffffffffffffffffffffffff021916908373ffffffffffffffffffffffffffffffffffffffff1602179055506001816103c19190611472565b600085600a81106103d5576103d46113a8565b5b61040a020160040184600a81106103ef576103ee6113a8565b5b60670201600101819055506001816104079190611472565b91505092915050565b610418610b06565b600082600a811061042c5761042b6113a8565b5b61040a02016040518060a001604052908160008201548152602001600182018054610456906114f7565b80601f0160208091040260200160405190810160405280929190818152602001828054610482906114f7565b80156104cf5780601f106104a4576101008083540402835291602001916104cf565b820191906000526020600020905b8154815290600101906020018083116104b257829003601f168201915b505050505081526020016002820180546104e8906114f7565b80601f0160208091040260200160405190810160405280929190818152602001828054610514906114f7565b80156105615780601f1061053657610100808354040283529160200191610561565b820191906000526020600020905b81548152906001019060200180831161054457829003601f168201915b5050505050815260200160038201805461057a906114f7565b80601f01602080910402602001604051908101604052809291908181526020018280546105a6906114f7565b80156105f35780601f106105c8576101008083540402835291602001916105f3565b820191906000526020600020905b8154815290600101906020018083116105d657829003601f168201915b5050505050815260200160048201600a80602002604051908101604052809291906000905b828210156106fd5783826067020160405180608001604052908160008201548152602001600182015481526020016002820154815260200160038201606480602002604051908101604052809291906000905b828210156106e6578382016040518060200160405290816000820160009054906101000a900473ffffffffffffffffffffffffffffffffffffffff1673ffffffffffffffffffffffffffffffffffffffff1673ffffffffffffffffffffffffffffffffffffffff16815250508152602001906001019061066b565b505050508152505081526020019060010190610618565b50505050815250509050919050565b600081600a811061071c57600080fd5b61040a020160009150905080600001549080600101805461073c906114f7565b80601f0160208091040260200160405190810160405280929190818152602001828054610768906114f7565b80156107b55780601f1061078a576101008083540402835291602001916107b5565b820191906000526020600020905b81548152906001019060200180831161079857829003601f168201915b5050505050908060020180546107ca906114f7565b80601f01602080910402602001604051908101604052809291908181526020018280546107f6906114f7565b80156108435780601f1061081857610100808354040283529160200191610843565b820191906000526020600020905b81548152906001019060200180831161082657829003601f168201915b505050505090806003018054610858906114f7565b80601f0160208091040260200160405190810160405280929190818152602001828054610884906114f7565b80156108d15780601f106108a6576101008083540402835291602001916108d1565b820191906000526020600020905b8154815290600101906020018083116108b457829003601f168201915b5050505050905084565b60008083600a81106108f0576108ef6113a8565b5b61040a020160040182600a811061090a576109096113a8565b5b6067020160020154905092915050565b83600085600a811061092f5761092e6113a8565b5b61040a02016000018190555082600085600a81106109505761094f6113a8565b5b61040a0201600101908051906020019061096b929190610b3b565b5080600085600a8110610981576109806113a8565b5b61040a0201600201908051906020019061099c929190610b3b565b5081600085600a81106109b2576109b16113a8565b5b61040a020160030190805190602001906109cd929190610b3b565b5050505050565b60008083600a81106109e9576109e86113a8565b5b61040a020160040182600a8110610a0357610a026113a8565b5b6067020160010154905092915050565b60008083600a8110610a2857610a276113a8565b5b61040a020160040182600a8110610a4257610a416113a8565b5b6067020160000154905092915050565b80600085600a8110610a6757610a666113a8565b5b61040a020160040184600a8110610a8157610a806113a8565b5b606702016002018190555081600085600a8110610aa157610aa06113a8565b5b61040a020160040184600a8110610abb57610aba6113a8565b5b606702016000018190555060008085600a8110610adb57610ada6113a8565b5b61040a020160040184600a8110610af557610af46113a8565b5b606702016001018190555050505050565b6040518060a0016040528060008152602001606081526020016060815260200160608152602001610b35610bc1565b81525090565b828054610b47906114f7565b90600052602060002090601f016020900481019282610b695760008555610bb0565b82601f10610b8257805160ff1916838001178555610bb0565b82800160010185558215610bb0579182015b82811115610baf578251825591602001919060010190610b94565b5b509050610bbd9190610bef565b5090565b604051806101400160405280600a905b610bd9610c0c565b815260200190600190039081610bd15790505090565b5b80821115610c08576000816000905550600101610bf0565b5090565b6040518060800160405280600081526020016000815260200160008152602001610c34610c3a565b81525090565b60405180610c8001604052806064905b610c52610c68565b815260200190600190039081610c4a5790505090565b6040518060200160405280600073ffffffffffffffffffffffffffffffffffffffff1681525090565b6000604051905090565b600080fd5b600080fd5b6000819050919050565b610cb881610ca5565b8114610cc357600080fd5b50565b600081359050610cd581610caf565b92915050565b60008060408385031215610cf257610cf1610c9b565b5b6000610d0085828601610cc6565b9250506020610d1185828601610cc6565b9150509250929050565b610d2481610ca5565b82525050565b6000602082019050610d3f6000830184610d1b565b92915050565b600060208284031215610d5b57610d5a610c9b565b5b6000610d6984828501610cc6565b91505092915050565b610d7b81610ca5565b82525050565b600081519050919050565b600082825260208201905092915050565b60005b83811015610dbb578082015181840152602081019050610da0565b83811115610dca576000848401525b50505050565b6000601f19601f8301169050919050565b6000610dec82610d81565b610df68185610d8c565b9350610e06818560208601610d9d565b610e0f81610dd0565b840191505092915050565b6000600a9050919050565b600081905092915050565b6000819050919050565b600060649050919050565b600081905092915050565b6000819050919050565b600073ffffffffffffffffffffffffffffffffffffffff82169050919050565b6000610e8582610e5a565b9050919050565b610e9581610e7a565b82525050565b602082016000820151610eb16000850182610e8c565b50505050565b6000610ec38383610e9b565b60208301905092915050565b6000602082019050919050565b610ee581610e3a565b610eef8184610e45565b9250610efa82610e50565b8060005b83811015610f2b578151610f128782610eb7565b9650610f1d83610ecf565b925050600181019050610efe565b505050505050565b610ce082016000820151610f4a6000850182610d72565b506020820151610f5d6020850182610d72565b506040820151610f706040850182610d72565b506060820151610f836060850182610edc565b50505050565b6000610f958383610f33565b610ce08301905092915050565b6000602082019050919050565b610fb881610e1a565b610fc28184610e25565b9250610fcd82610e30565b8060005b83811015610ffe578151610fe58782610f89565b9650610ff083610fa2565b925050600181019050610fd1565b505050505050565b60006181408301600083015161101f6000860182610d72565b50602083015184820360208601526110378282610de1565b915050604083015184820360408601526110518282610de1565b9150506060830151848203606086015261106b8282610de1565b91505060808301516110806080860182610faf565b508091505092915050565b600060208201905081810360008301526110a58184611006565b905092915050565b600082825260208201905092915050565b60006110c982610d81565b6110d381856110ad565b93506110e3818560208601610d9d565b6110ec81610dd0565b840191505092915050565b600060808201905061110c6000830187610d1b565b818103602083015261111e81866110be565b9050818103604083015261113281856110be565b9050818103606083015261114681846110be565b905095945050505050565b600080fd5b600080fd5b7f4e487b7100000000000000000000000000000000000000000000000000000000600052604160045260246000fd5b61119382610dd0565b810181811067ffffffffffffffff821117156111b2576111b161115b565b5b80604052505050565b60006111c5610c91565b90506111d1828261118a565b919050565b600067ffffffffffffffff8211156111f1576111f061115b565b5b6111fa82610dd0565b9050602081019050919050565b82818337600083830152505050565b6000611229611224846111d6565b6111bb565b90508281526020810184848401111561124557611244611156565b5b611250848285611207565b509392505050565b600082601f83011261126d5761126c611151565b5b813561127d848260208601611216565b91505092915050565b600080600080608085870312156112a05761129f610c9b565b5b60006112ae87828801610cc6565b945050602085013567ffffffffffffffff8111156112cf576112ce610ca0565b5b6112db87828801611258565b935050604085013567ffffffffffffffff8111156112fc576112fb610ca0565b5b61130887828801611258565b925050606085013567ffffffffffffffff81111561132957611328610ca0565b5b61133587828801611258565b91505092959194509250565b6000806000806080858703121561135b5761135a610c9b565b5b600061136987828801610cc6565b945050602061137a87828801610cc6565b935050604061138b87828801610cc6565b925050606061139c87828801610cc6565b91505092959194509250565b7f4e487b7100000000000000000000000000000000000000000000000000000000600052603260045260246000fd5b7f4661696c65640000000000000000000000000000000000000000000000000000600082015250565b600061140d6006836110ad565b9150611418826113d7565b602082019050919050565b6000602082019050818103600083015261143c81611400565b9050919050565b7f4e487b7100000000000000000000000000000000000000000000000000000000600052601160045260246000fd5b600061147d82610ca5565b915061148883610ca5565b9250827fffffffffffffffffffffffffffffffffffffffffffffffffffffffffffffffff038211156114bd576114bc611443565b5b828201905092915050565b7f4e487b7100000000000000000000000000000000000000000000000000000000600052602260045260246000fd5b6000600282049050600182168061150f57607f821691505b602082108103611522576115216114c8565b5b5091905056fea2646970667358221220f6a0fea5f902aac0641e1a3011f672a74f5226f1fd1aa4313becac79e693cedb64736f6c634300080d0033",
  "immutableReferences": {},
  "source": "pragma solidity >=0.4.22 <0.9.0;\r\n\r\ncontract Tickets{\r\n\r\n    struct Ticket{\r\n        address ticketOwner;\r\n    }\r\n\r\n    struct Stand{\r\n        uint256 noOfTickets;\r\n        uint256 filledCount;\r\n        uint256 price;\r\n        Ticket[100] tickets;\r\n    }\r\n\r\n    struct Match{\r\n        uint256 matchNo;\r\n        string team1;\r\n        string team2;\r\n        string stadium;\r\n        Stand[10] stands;\r\n    }\r\n\r\n    Match[10] public matches;\r\n\r\n    function setMatch(uint256 _matchno, string memory _team1, string memory _stadium, string memory _team2) public {\r\n        matches[_matchno].matchNo = _matchno;\r\n        matches[_matchno].team1 = _team1;\r\n        matches[_matchno].team2 = _team2;\r\n        matches[_matchno].stadium = _stadium;\r\n\r\n    }\r\n\r\n    function setStand(uint256 _matchno, uint256 _standNo, uint256 _noOfTickets, uint256 _price) public {\r\n        matches[_matchno].stands[_standNo].price = _price;\r\n        matches[_matchno].stands[_standNo].noOfTickets = _noOfTickets;\r\n        matches[_matchno].stands[_standNo].filledCount = 0;\r\n    }\r\n\r\n    function getPrice(uint256 _matchno, uint256 _stand) public view returns(uint256 m){\r\n        m = matches[_matchno].stands[_stand].price;\r\n    }\r\n\r\n    function buyTicket(uint256 _matchno, uint256 _stand) external payable returns(uint256){\r\n        uint256 fc = matches[_matchno].stands[_stand].filledCount;\r\n        require(fc!=matches[_matchno].stands[_stand].noOfTickets);\r\n        \r\n        require(msg.value>=matches[_matchno].stands[_stand].price, \"Failed\");        \r\n        matches[_matchno].stands[_stand].tickets[fc].ticketOwner = msg.sender;\r\n        matches[_matchno].stands[_stand].filledCount = fc + 1; \r\n        return (fc+1);\r\n    }\r\n\r\n    function getFilledCount(uint256 _matchno, uint256 _stand) public view returns(uint256 m){\r\n        m = matches[_matchno].stands[_stand].filledCount;\r\n    }\r\n\r\n    function getTotalTickets(uint256 _matchno, uint256 _stand) public view returns(uint256 m){\r\n        m = matches[_matchno].stands[_stand].noOfTickets;\r\n    }\r\n\r\n    function getMatch(uint256 _matchno) public view returns(Match memory m){\r\n        m = matches[_matchno];\r\n    }\r\n    // function getMatch(uint256 _matchno) public view returns (Match memory k) {\r\n    //     k = matches[_matchno];\r\n    // }\r\n\r\n    // function getTicketOwner(uint256 _matchno, uint256 _seatno) public view returns (address  a){\r\n    //     a = matches[_matchno].matchTickets[_seatno].ticketOwner.customerAddress;\r\n    // }\r\n\r\n\r\n    // function buyTicket(uint256 _matchno, uint256 _seatno) public {\r\n    //     matches[_matchno].matchTickets[_seatno].ticketOwner.customerAddress = msg.sender;\r\n    // }\r\n}",
  "sourcePath": "D:\\Blockchain\\ICC\\server\\contracts\\Tickets.sol",
  "compiler": {
    "name": "solc",
    "version": "0.8.13+commit.abaa5c0e.Emscripten.clang"
  },
  "schemaVersion": "3.4.16",
  "updatedAt": "2023-11-07T05:57:44.711Z",
  "networkType": "ethereum",
  "devdoc": {
    "kind": "dev",
    "methods": {},
    "version": 1
  },
  "userdoc": {
    "kind": "user",
    "methods": {},
    "version": 1
  }
}